:020000040800F2
:100000000000022065170008751600087B1600081E
:1000100081160008871600088D16000800000000F1
:10002000000000000000000000000000931600081F
:10003000A116000800000000AF160008BD16000859
:10004000B5170008B5170008B5170008B517000860
:10005000B5170008B5170008B5170008B517000850
:10006000B5170008B5170008B5170008B517000840
:10007000C9160008B5170008B5170008B51700081D
:10008000B5170008B5170008B5170008DD160008F9
:10009000F11600080517000819170008B517000821
:1000A000B5170008B5170008B5170008B517000800
:1000B000B5170008B5170008B5170008B5170008F0
:1000C000B5170008B5170008B5170008B5170008E0
:1000D000B5170008B5170008B51700082D17000858
:1000E000B5170008B5170008B5170008B5170008C0
:1000F000B5170008B5170008B5170008B5170008B0
:10010000B5170008B5170008B5170008B51700089F
:10011000B5170008B5170008B5170008B51700088F
:10012000B5170008B5170008B5170008B51700087F
:10013000B5170008B5170008B5170008B51700086F
:10014000B5170008B5170008B5170008B51700085F
:10015000B5170008B5170008B5170008B51700084F
:10016000B5170008B5170008B5170008B51700083F
:10017000B5170008B5170008B51700080000000003
:08018000B5170008B5170008CF
:1001880010B5054C237833B9044B13B10448AFF3C9
:1001980000800123237010BD4C01002000000000E6
:1001A800144E000808B5034B1BB103490348AFF3CD
:1001B800008008BD0000000050010020144E000817
:1001C80053B94AB9002908BF00281CBF4FF0FF31B6
:1001D8004FF0FF3000F074B9ADF1080C6DE904CEB2
:1001E80000F006F8DDF804E0DDE9022304B070470A
:1001F8002DE9F047089D04468E46002B4DD18A42D2
:10020800944669D9B2FA82F252B101FA02F3C2F104
:10021800200120FA01F10CFA02FC41EA030E944095
:100228004FEA1C48210CBEFBF8F61FFA8CF708FBB6
:1002380016E341EA034306FB07F199420AD91CEB8E
:10024800030306F1FF3080F01F81994240F21C81C0
:10025800023E63445B1AA4B2B3FBF8F008FB103308
:1002680044EA034400FB07F7A7420AD91CEB04043D
:1002780000F1FF3380F00A81A74240F2078164440D
:10028800023840EA0640E41B00261DB1D440002392
:10029800C5E900433146BDE8F0878B4209D9002DF6
:1002A80000F0EF800026C5E9000130463146BDE880
:1002B800F087B3FA83F6002E4AD18B4202D38242EA
:1002C80000F2F980841A61EB030301209E46002D99
:1002D800E0D0C5E9004EDDE702B9FFDEB2FA82F2EE
:1002E800002A40F09280A1EB0C014FEA1C471FFA4C
:1002F8008CFE0126200CB1FBF7F307FB131140EA33
:1003080001410EFB03F0884208D91CEB010103F1FF
:10031800FF3802D2884200F2CB804346091AA4B2C1
:10032800B1FBF7F007FB101144EA01440EFB00FE95
:10033800A64508D91CEB040400F1FF3102D2A645FA
:1003480000F2BB800846A4EB0E0440EA03409CE799
:10035800C6F12007B34022FA07FC4CEA030C20FA46
:1003680007F401FA06F31C43F9404FEA1C4900FA66
:1003780006F3B1FBF9F8200C1FFA8CFE09FB1811E3
:1003880040EA014108FB0EF0884202FA06F20BD956
:100398001CEB010108F1FF3A80F08880884240F2A6
:1003A8008580A8F102086144091AA4B2B1FBF9F0EA
:1003B80009FB101144EA014100FB0EFE8E4508D9E5
:1003C8001CEB010100F1FF346CD28E456AD902386A
:1003D800614440EA0840A0FB0294A1EB0E01A1424F
:1003E800C846A64656D353D05DB1B3EB080261EBBD
:1003F8000E0101FA07F722FA06F3F1401F43C5E997
:10040800007100263146BDE8F087C2F12003D840CC
:100418000CFA02FC21FA03F3914001434FEA1C470E
:100428001FFA8CFEB3FBF7F007FB10360B0C43EA00
:10043800064300FB0EF69E4204FA02F408D91CEBB0
:10044800030300F1FF382FD29E422DD902386344AE
:100458009B1B89B2B3FBF7F607FB163341EA03414E
:1004680006FB0EF38B4208D91CEB010106F1FF389D
:1004780016D28B4214D9023E6144C91A46EA004694
:1004880038E72E46284605E70646E3E61846F8E626
:100498004B45A9D2B9EB020864EB0C0E0138A3E76F
:1004A8004646EAE7204694E74046D1E7D0467BE750
:1004B800023B614432E7304609E76444023842E7C8
:1004C800704700BF80B483B000AF7860044B1A68EF
:1004D8007B681A6000BF0C37BD465DF8047B704727
:1004E8004808002080B483B000AF78600A4B1A68CF
:1004F8007B681B68D31AB3F57A7F03D97B6800221F
:100508001A7102E07B6801221A7100BF0C37BD46E0
:100518005DF8047B704700BF4808002080B483B0B2
:1005280000AF00237B6052E03A497A6813465B00CB
:100538001344DB000B44043300221A6035497A68FF
:1005480013465B001344DB000B44083300221A6097
:1005580030497A6813465B001344DB000B440C33C4
:1005680000221A602B497A6813465B001344DB00AB
:100578000B44103308221A6027497A681346DB00B7
:100588009B1A9B000B44043300221A6022497A68A4
:100598001346DB009B1A9B000B44083300221A60A9
:1005A8001D497A681346DB009B1A9B000B440C33E9
:1005B80000221A6018497A681346DB009B1A9B00D0
:1005C8000B44103308221A607B6801337B607B6818
:1005D800072BA9DD0F4B4FF400729A610E4B40F2C6
:1005E8000122DA610B4B4FF400721A630A4B40F296
:1005F80002229A63074B40F2FF12C3F8A820064B69
:1006080040F20722C3F8C42000BF0C37BD465DF88E
:10061800047B7047840100204402002080B500AFAD
:10062800174B184A1A60164B06225A60144B0022C0
:100638009A60134B0022DA60114B4FF440321A6172
:100648000F4B4FF480125A610D4B00221A760C4B57
:1006580001225A760A4B00229A76094B0022DA7652
:10066800074B00221A77064B00225A77044801F0FC
:1006780035F90346002B01D000F00AFC00BF80BD0D
:10068800500300200064004080B58AB000AF786055
:1006980007F1140300221A605A609A60DA601A613E
:1006A8007B681B68294A93424BD100233B61284B46
:1006B8001B6C274A43F000731364254B1B6C03F033
:1006C80000733B613B690023FB60214B1B6B204A95
:1006D80043F0080313631E4B1B6B03F00803FB6016
:1006E800FB6803237B610223BB610023FB610323B7
:1006F8003B6209237B6207F114031946154802F08F
:1007080063FC00220521132002F025F8132002F0D3
:100718003EF800220521142002F01DF8142002F0F2
:1007280036F800220521152002F015F8152002F0F0
:100738002EF800220521162002F00DF8162002F0EE
:1007480026F800BF2837BD4680BD00BF00640040C2
:1007580000380240000C024080B58AB000AF012387
:100768003B620023BB610023FB6100233B61002344
:100778003B6000237B600023BB600023FB600023F9
:100788007B613B461946034801F0A4F900BF2837AE
:10079800BD4680BD5003002080B582B000AF7860B0
:1007A8007B681B68744A934240F0E080734B744A3C
:1007B8000021744801F08DFB714B1B68A3F20123E3
:1007C800062B00F2D48001A252F823F0F1070008AA
:1007D800470800089F080008F9080008770900087A
:1007E8007709000857090008644B9B789BB21B02E5
:1007F8009AB2624BDB789BB213449BB21AB2624B3B
:10080800DA825E4B1B789BB21B029AB25B4B5B7819
:100818009BB213449AB25C4B9A82584B1B799BB299
:100828001B029AB2554B5B799BB213449BB21AB226
:10083800554B1A83514B9A79534B9A7697E04F4B05
:100848009B789BB21B029AB24C4BDB789BB2134449
:100858009BB21AB24C4B5A85484B1B789BB21B0271
:100868009AB2464B5B789BB213449AB2464B1A85B0
:10087800424B1B799BB21B029AB2404B5B799BB2ED
:1008880013449BB21AB2404B9A853C4B9A793E4B23
:1008980083F82E206BE0394B9B789BB21B029AB2EF
:1008A800364BDB789BB213449BB21AB2364BDA87CD
:1008B800324B1B789BB21B029AB2304B5B789BB2CF
:1008C80013449AB2304B9A872C4B1B799BB21B026C
:1008D8009AB22A4B5B799BB213449BB21AB22A4B49
:1008E800A3F84020254B9A79274B83F842203EE015
:1008F800224B9B789BB21B029AB2204BDB789BB2AF
:1009080013449BB21AB2204BA3F852201B4B1B78FE
:100918009BB21B029AB2194B5B789BB213449AB2F2
:10092800194BA3F85020154B1B799BB21B029AB2A6
:10093800124B5B799BB213449BB21AB2124BA3F8C9
:1009480054200E4B9A79104B83F856200FE00B4B2E
:100958009B789BB21B029AB2084BDB789BB213447C
:100968009BB21AB2084BA3F88E2000E000BF00BF6C
:100978000837BD4680BD00BF0064004074010020F8
:1009880024030020500300206C07002080B500AF2E
:1009980000F048F81F4BB3F900301B121BB2DAB253
:1009A8001D4B1A701B4BB3F90030DAB21A4B5A7050
:1009B800184BB3F902301B121BB2DAB2164B9A70FD
:1009C800144BB3F90230DAB2134BDA70114BB3F9A6
:1009D80004301B121BB2DAB20F4B1A710D4BB3F96C
:1009E8000430DAB20C4B5A710A4BB3F906301B12B9
:1009F8001BB2DAB2084B9A71064BB3F90630DAB279
:100A0800054BDA710123044A0449054801F086F9C7
:100A180000BF80BD400300207C0100209C01002015
:100A28005003002080B582B000AF01237B6063E0F3
:100A38007B68342202FB03F3334A991833487A68F7
:100A480013469B0013449B0003440233B3F9003060
:100A580007EE903AF8EEE77A2C487A6813469B003E
:100A680013449B0003440C3393ED007AF0EE470ADD
:100A7800B0EE670A084600F017FB7B68013B244A82
:100A880032F9133007EE903AB8EEE77A1E4A7B68DF
:100A9800342101FB03F313442033D3ED007A77EEBE
:100AA800277A7B68013BFDEEE77A17EE902A11B2B0
:100AB800174A22F813107B68013B154A32F91330A4
:100AC800B3F5804F06DD7B68013B114A4FF4804146
:100AD80022F813107B68013B0D4A32F9133013F5E5
:100AE800804F06DA7B68013B094A4FF4404122F8FF
:100AF80013107B6801337B607B68082B98DD00BF8F
:100B080000BF0837BD4680BD2C0400206C070020BC
:100B18004003002080B500AF00F04AFE00F0BEF8A8
:100B280000F072F900F050F9FFF778FD00F020F9B5
:100B3800FFF7F4FCFFF710FE02214B4801F0DBFA47
:100B4800494801F0A7F8494800F090FA484800F0F1
:100B58008DFA00F0A3F912224649474803F075F8C8
:100B6800454B1B68DA68444B1B6842F01002DA6098
:100B7800424B4FF000021A62404B4FF000025A639A
:100B88004FF47A7000F086FE3C4B4FF000021A6278
:100B98003A4B4FF000025A63384B4FF000029A6408
:100BA800374B01221A703748FFF79CFC354B1B79ED
:100BB800002B48D0344BB3F902301A4613469B0039
:100BC8001344324A1360304BB3F906301A461346C1
:100BD8009B0013442E4A13602B4B5B7A022B21D1C6
:100BE8002A4B1B6807EE903AF8EEE77A234BC3EDE1
:100BF800087A264B1B685B4207EE903AF8EEE77AD4
:100C08001E4BC3ED0D7A224B1B6807EE903AF8EEA7
:100C1800E77A1A4BC3ED127AFFF7B8FE0A2000F004
:100C280039FE10E0154B4FF000021A62134B4FF0DB
:100C380000025A63114B4FF000029A64FFF7A6FEB8
:100C48000A2000F027FE0D4BB3F916301A46114B57
:100C58001A600A4BB3F92A305B420F4A136001202D
:100C680000F018FE9CE700BF500300202C04002071
:100C7800CC05002024080020780300206C07002001
:100C880070010020680100200C08002024040020C6
:100C9800280400201C0400202004002080B594B003
:100CA80000AF07F1200330220021184604F0A6F80F
:100CB80007F10C0300221A605A609A60DA601A6120
:100CC8000023BB60284B1B6C274A43F080531364F6
:100CD800254B1B6C03F08053BB60BB6800237B6013
:100CE800224B1B68214A43F4804313601F4B1B6847
:100CF80003F480437B607B6801233B624FF48033BD
:100D08007B620223BB634FF48003FB6306233B64CF
:100D1800A8237B640223BB640423FB6407F120033C
:100D2800184602F0EDFA0346002B01D000F0B0F8A7
:100D38000F23FB6002233B6100237B614FF4A05328
:100D4800BB614FF48053FB6107F10C030521184682
:100D580002F04EFD0346002B01D000F099F800BFC9
:100D68005037BD4680BD00BF0038024000700040CB
:100D780080B500AF114B124A1A60104B114A5A60E5
:100D88000E4B4FF480529A600C4B0022DA600B4BEA
:100D98004FF480621A61094B04225A61074B002202
:100DA8009A61064B0022DA61044802F001FF03460B
:100DB800002B01D000F06CF800BF80BD7803002044
:100DC80000480040A086010080B582B000AF002333
:100DD8007B600C4B1B6B0B4A43F400131363094BEA
:100DE8001B6B03F400137B607B68002200210C203E
:100DF80001F0B1FC0C2001F0CAFC00BF0837BD4669
:100E080080BD00BF0038024080B485B000AF002329
:100E1800FB601E4B1B6B1D4A43F0010313631B4B06
:100E28001B6B03F00103FB60FB680023BB60174BDF
:100E38001B6B164A43F008031363144B1B6B03F038
:100E48000803BB60BB6800237B60104B1B6B0F4A19
:100E580043F0040313630D4B1B6B03F004037B6027
:100E68007B6800233B60094B1B6B084A43F08003F7
:100E78001363064B1B6B03F080033B603B6800BFAA
:100E88001437BD465DF8047B704700BF0038024048
:100E980080B400AF72B600BFFEE7000080B483B034
:100EA80000AF00237B605EE06C497A6813469B00C4
:100EB80013449B000B441A6869497B68342000FB83
:100EC80003F30B441A6065497A6813469B00134480
:100ED8009B000B4404331A6861497B68342000FB8B
:100EE80003F30B4404331A605C497A6813469B0089
:100EF80013449B000B4408331A6859497B68342013
:100F080000FB03F30B4408331A6054497A6813460C
:100F18009B0013449B000B440C331A6850497B68B0
:100F2800342000FB03F30B4424331A604B497A68DE
:100F380013469B0013449B000B4410331A6848491E
:100F48007B68342000FB03F30B4428331A60444ABF
:100F58007B68342101FB03F313442C3300221A600D
:100F68007B6801337B607B68072B9DDD00233B603A
:100F780069E03C493A6813469B0013449B000B44C4
:100F88001A6839493B68342000FB03F30B441A60A4
:100F980034493A6813469B0013449B000B440433BE
:100FA8001A6831493B68342000FB03F30B440433CF
:100FB8001A602C493A6813469B0013449B000B4463
:100FC80008331A6828493B68342000FB03F30B44B4
:100FD80008331A6023493A6813469B0013449B0060
:100FE8000B440C331A6820493B68342000FB03F398
:100FF8000B4424331A601B493A6813469B00134478
:101008009B000B4410331A6817493B68342000FBD7
:1010180003F30B4428331A60134A3B68342101FB5D
:1010280003F313442C3301221A603B68D8B20E4AEA
:101038003B68342101FB03F31344303302461A7032
:101048003B6801333B603B68072B92DD00BF00BF64
:101058000C37BD465DF8047B704700BF00000020D8
:101068002C040020A0000020CC05002080B483B010
:1010780000AF78607B684FF000025A627B684FF0DF
:1010880000021A607B684FF000025A607B684FF0DC
:1010980000029A607B684FF000029A6200BF0C372A
:1010A800BD465DF8047B704780B485B000AFF8603A
:1010B80087ED020AC7ED010A97ED017AD7ED027AAA
:1010C80077EE677AFB68C3ED057AFB6893ED007AE3
:1010D800FB68D3ED056AFB68D3ED047A76EEE77A10
:1010E80027EE277AFB68D3ED016AFB68D3ED057A12
:1010F80066EEA77A37EE277AFB68D3ED026AFB68BB
:1011080093ED056AFB68D3ED047A36EE676AFB68EF
:10111800D3ED077A76EE677A66EEA77A77EE277AC6
:10112800FB68C3ED087AFB6893ED087AFB68D3ED9A
:10113800097AB4EEE77AF1EE10FA03DDFB685A6A31
:10114800FB681A62FB6893ED087AFB68D3ED097AAD
:10115800F1EE677AB4EEE77AF1EE10FA07D5FB689C
:10116800D3ED097AF1EE677AFB68C3ED087AFB687C
:1011780093ED057AFB68D3ED047A77EE677AFB681E
:10118800C3ED077AFB685A69FB681A6100BF143718
:10119800BD465DF8047B704780B584B000AF434B13
:1011A8001B6C424A23F480231364404B1B6B3F4A59
:1011B80023F4001313633E4B1B681A463D4B9A42B7
:1011C80004D93D4B4FF40062DA6019E0384B1B68D4
:1011D8001A463A4B9A4204D9374A4FF4006393604F
:1011E8000EE0334B1B681A46354B9A4204D9354AF0
:1011F8004FF40063D36003E0324A4FF40063936016
:101208000023FB60304B1B681B68FB602E4B1B6880
:101218005B68FB60FB68264B1B681A46254B9A42A5
:1012280003D9254B1022DA6016E0214B1B681A46B9
:10123800224B9A4203D9204A102393600CE01C4B9E
:101248001B681A461E4B9A4203D91E4A1023D360C4
:1012580002E01C4A102393600023BB60134B1B6CF5
:10126800124A43F480231364104B1B6C03F480234D
:10127800BB60BB6800237B600C4B1B6B0B4A43F4C1
:1012880000131363094B1B6B03F400137B607B682B
:10129800162200210D4803F0B1FD12220C490A481C
:1012A80002F0D3FC00BF1037BD4680BD00380240B5
:1012B800BC0300205864024000640240B860024049
:1012C8005860024000600240780300200C080020AB
:1012D8002408002080B582B000AF78607B681B6866
:1012E800874A934240F008818648FFF7EBF8864B1F
:1012F8001B781AB2844B5B781B021BB213431BB2D8
:10130800C3F30A031AB2814B1A80804BB3F9003039
:101318009BB2A3F580639BB21AB27C4B1A807A4BBE
:101328005B78DB08DBB21AB2774B9B785B011BB2A8
:1013380013431BB2C3F30A031AB2744B5A80734B9C
:10134800B3F902309BB2A3F580639BB21AB26F4B1C
:101358005A806D4B9B789B09DBB21AB26A4BDB78DB
:101368009B001BB213431AB2674B1B799B021BB23B
:1013780013431BB2C3F30A031AB2644B9A80634B3C
:10138800B3F904309BB2A3F580639BB21AB25F4BEA
:101398009A805D4B1B795B08DBB21AB25A4B5B79BA
:1013A800DB011BB213431BB2C3F30A031AB2574B38
:1013B800DA80564BB3F906309BB2A3F580639BB233
:1013C8001AB2524BDA80514BB3F90030052B08DCC6
:1013D8004E4BB3F9003013F1050F02DB4B4B0022E3
:1013E8001A804A4BB3F90230052B08DC474BB3F996
:1013F800023013F1050F02DB444B00225A80434BA5
:10140800B3F90430052B08DC404BB3F9043013F171
:10141800050F02DB3D4B00229A803C4BB3F90630A6
:10142800052B08DC394BB3F9063013F1050F02DB45
:10143800364B0022DA80344B5B791B09DBB29B10F8
:10144800DBB203F00303DAB2304B1A722E4B5B792E
:101458001B09DBB203F00303DAB22C4B5A722B4B95
:10146800B3F90030002BB8BF5B429BB2B3F5257FC0
:101478001DD8264BB3F90230002BB8BF5B429BB294
:10148800B3F5257F13D8214BB3F90430002BB8BF2F
:101498005B429BB2B3F5257F09D81C4BB3F90630E4
:1014A800002BB8BF5B429BB2B3F5257F07D9162244
:1014B8000021164803F0A2FCFFF76EFE1CE0124B59
:1014C8001B7C1AB2104B5B7C1B021BB213431BB272
:1014D8009BB2A3F580639BB21AB20C4B5A811222BD
:1014E80009490B4802F0B1FB094B1B68DA68084B45
:1014F8001B6842F01002DA600837BD4680BD00BFA5
:101508000048004068010020240800200C08002042
:101518007803002080B483B000AF00237B60104BB9
:101528005B6C0F4A43F4804353640D4B5B6C03F4CC
:1015380080437B607B6800233B60094B1B6C084A37
:1015480043F080531364064B1B6C03F080533B60DD
:101558003B6800BF0C37BD465DF8047B704700BF91
:101568000038024080B58AB000AF786007F11403F4
:1015780000221A605A609A60DA601A617B681B68F8
:10158800354A934264D100233B61344B1B6C334A88
:1015980043F480231364314B1B6C03F480233B61B9
:1015A8003B690023FB602D4B1B6B2C4A43F0040363
:1015B80013632A4B1B6B03F00403FB60FB684FF4B7
:1015C80040637B610223BB610023FB6103233B6211
:1015D80007237B6207F114031946214801F0F4FC44
:1015E800204B214A1A601F4B4FF000625A601D4B76
:1015F80000229A601B4B0022DA601A4B4FF480627B
:101608001A61184B00225A61164B00229A61154B39
:101618004FF48072DA61134B4FF440321A62114B67
:1016280000225A620F4801F0CDF80346002B01D082
:10163800FFF72EFC7B680B4A9A630A4A7B68936320
:1016480000220621272001F086F8272001F09FF8C4
:1016580000BF2837BD4680BD004800400038024022
:1016680000080240BC0300202860024080B400AF9C
:10167800FEE780B400AFFEE780B400AFFEE780B4B9
:1016880000AFFEE780B400AFFEE780B400AF00BF54
:10169800BD465DF8047B704780B400AF00BFBD460F
:1016A8005DF8047B704780B400AF00BFBD465DF8AD
:1016B800047B704780B500AF00F0CCF800BF80BD58
:1016C80080B500AF024801F015FA00BF80BD00BF29
:1016D800BC03002080B500AF024800F032FD00BF17
:1016E80080BD00BF5003002080B500AF024800F065
:1016F80028FD00BF80BD00BF5003002080B500AFAB
:10170800024800F01EFD00BF80BD00BF500300204E
:1017180080B500AF024800F014FD00BF80BD00BFD7
:101728005003002080B500AF024802F0BFFA00BFA6
:1017380080BD00BF7803002080B400AF064BD3F80B
:101748008830054A43F47003C2F8883000BFBD46AC
:101758005DF8047B704700BF00ED00E0DFF834D08F
:101768000D480E490E4A002302E0D458C4500433F1
:10177800C4188C42F9D30B4A0B4C002301E01360C8
:101788000432A242FBD3FFF7D7FF03F013FBFFF7A6
:10179800C1F9704700000220000000204C01002021
:1017A8005C4E00084C0100204C080020FEE70000B9
:1017B80080B500AF0E4B1B680D4A43F400731360ED
:1017C8000B4B1B680A4A43F480631360084B1B6881
:1017D800074A43F480731360032000F0B1FF0F2021
:1017E80000F008F8FFF796FE0023184680BD00BFFA
:1017F800003C024080B582B000AF7860124B1A6896
:10180800124B1B7819464FF47A73B3FBF1F3B2FB12
:10181800F3F3184600F0C9FF0346002B01D001235B
:101828000EE07B680F2B0AD8002279684FF0FF3052
:1018380000F091FF064A7B681360002300E0012353
:1018480018460837BD4680BD4001002048010020E9
:101858004401002080B400AF064B1B781A46064BA3
:101868001B681344044A136000BFBD465DF8047B3F
:10187800704700BF480100204808002080B400AF2E
:10188800034B1B681846BD465DF8047B704700BFD4
:101898004808002080B584B000AF7860FFF7EEFFFD
:1018A800B8607B68FB60FB68B3F1FF3F05D00A4B6B
:1018B8001B781A46FB681344FB6000BFFFF7DEFF86
:1018C8000246BB68D31AFA689A42F7D800BF00BF2D
:1018D8001037BD4680BD00BF4801002080B584B0E8
:1018E80000AF78607B68002B01D10123EDE07B68B5
:1018F80093F82030DBB2002B02D17868FEF7C4FEE3
:101908007B681B681A687B681B6842F001021A60D2
:10191800FFF7B4FFF86012E0FFF7B0FF0246FB687C
:10192800D31A0A2B0BD97B685B6A43F400327B68B5
:101938005A627B68052283F820200123C5E07B6872
:101948001B685B6803F00103002BE5D07B681B680C
:101958001A687B681B6822F002021A60FFF78EFF84
:10196800F86012E0FFF78AFF0246FB68D31A0A2BD9
:101978000BD97B685B6A43F400327B685A627B68E8
:10198800052283F8202001239FE07B681B685B68A1
:1019980003F00203002BE5D17B681B7E012B08D1E5
:1019A8007B681B681A687B681B6842F080021A60B3
:1019B80007E07B681B681A687B681B6822F0800256
:1019C8001A607B685B7E012B08D17B681B681A68EC
:1019D8007B681B6842F040021A6007E07B681B685E
:1019E8001A687B681B6822F040021A607B689B7E3D
:1019F800012B08D17B681B681A687B681B6842F05A
:101A080020021A6007E07B681B681A687B681B68FD
:101A180022F020021A607B68DB7E012B08D17B68EC
:101A28001B681A687B681B6822F010021A6007E0BE
:101A38007B681B681A687B681B6842F010021A6092
:101A48007B681B7F012B08D17B681B681A687B6841
:101A58001B6842F008021A6007E07B681B681A6876
:101A68007B681B6822F008021A607B685B7F012B89
:101A780008D17B681B681A687B681B6842F00402FF
:101A88001A6007E07B681B681A687B681B6822F08D
:101A980004021A607B689A687B68DB681A437B6873
:101AA8001B691A437B685B6942EA03017B685B68D0
:101AB8005A1E7B681B680A43DA617B6800225A62F7
:101AC8007B68012283F82020002318461037BD4682
:101AD80080BD000080B487B000AF786039607B6853
:101AE8001B687B617B6893F82030FB74FB7C012BBF
:101AF80003D0FB7C022B40F0BE80654B7B617B6989
:101B0800D3F8003243F001027B69C3F800227B69F5
:101B1800D3F8003223F47C527B69C3F800227B6936
:101B2800D3F800223B685B6A1B021A437B69C3F83F
:101B380000223B685B6903F01F03012202FA03F3EA
:101B4800FB607B69D3F81C22FB68DB431A407B6986
:101B5800C3F81C223B68DB69002B23D17B69D3F8CF
:101B68000C22FB68DB431A407B69C3F80C223B68F4
:101B7800DB6819043B685B689BB23A685269194391
:101B88007B69483243F832103B689B6819043B680C
:101B98001B689AB23B685B690A4379694833DB0082
:101BA8000B445A603B68DB69012B22D17B69D3F86F
:101BB8000C22FB681A437B69C3F80C223B681B683C
:101BC80019043B685B689BB23A68526919437B69A0
:101BD800483243F832103B689B6819043B68DB685D
:101BE8009AB23B685B690A4379694833DB000B4466
:101BF8005A603B689B69002B09D17B69D3F80422A2
:101C0800FB68DB431A407B69C3F8042207E07B6961
:101C1800D3F80422FB681A437B69C3F804223B68A3
:101C28001B69002B09D17B69D3F81422FB68DB43BD
:101C38001A407B69C3F8142207E07B69D3F81422A1
:101C4800FB681A437B69C3F814223B681B6A012BA3
:101C580007D17B69D3F81C22FB681A437B69C3F858
:101C68001C227B69D3F8003223F001027B69C3F898
:101C78000022002306E07B685B6A43F480227B68CD
:101C88005A62012318461C37BD465DF8047B70472D
:101C98000064004080B584B000AF78607B6893F83A
:101CA8002030DBB2012B2ED17B68022283F8202062
:101CB8007B681B681A687B681B6822F001021A603F
:101CC800FFF7DCFDF86012E0FFF7D8FD0246FB687D
:101CD800D31A0A2B0BD97B685B6A43F400327B6802
:101CE8005A627B68052283F82020012312E07B6872
:101CF8001B685B6803F00103002BE5D17B680022B9
:101D08005A62002306E07B685B6A43F400227B6822
:101D18005A62012318461037BD4680BD80B489B089
:101D280000AFF860B9607A603B60FB6893F82030D8
:101D3800FB77FB681B689B68BB61FB7F012B03D0AB
:101D4800FB7F022B40F0B880BB6903F08063002B57
:101D58000AD1BB6903F00063002B05D1BB6903F00E
:101D68008053002B00F0A080BB691B0E03F0030317
:101D78007B617B69022B07D9FB685B6A43F400022D
:101D8800FB685A6201239EE001227B699A403B6806
:101D98001A60BB689B68002B0DD1BB681B685A058D
:101DA800BB68DB68F96809681A437B6918331B014B
:101DB8000B441A600FE0BB685B68DA00BB689B687D
:101DC8001A43BB68DB68F96809681A437B691833EA
:101DD8001B010B441A60FB681968BB681A697B69A8
:101DE80018331B010B4404331A60BB681B7D012B9D
:101DF80011D1FB681A687B6918331B01134404333B
:101E08001B68FA68116843F480727B6918331B01F8
:101E18000B4404331A607B6807331B781A067B6807
:101E280006331B781B041A437B6805331B781B0297
:101E380013437A68043212781046FA68116843EA44
:101E480000027B691B010B4403F5C6731A607B68AB
:101E580003331B781A067B6802331B781B041A436A
:101E68007B6801331B781B0213437A68127810468B
:101E7800FA68116843EA00027B691B010B4403F509
:101E8800C4731A60FB681A687B6918331B01134412
:101E98001B68FA68116843F001027B6918331B015B
:101EA8000B441A6000230EE0FB685B6A43F40012DF
:101EB800FB685A62012306E0FB685B6A43F48022F0
:101EC800FB685A62012318462437BD465DF8047B37
:101ED800704780B487B000AFF860B9607A603B6043
:101EE800FB6893F82030FB75FB7D012B03D0FB7D4D
:101EF800022B40F0F380BB68002B0ED1FB681B68F7
:101F0800DB6803F00303002B16D1FB685B6A43F41C
:101F18000012FB685A620123E7E0FB681B681B6933
:101F280003F00303002B07D1FB685B6A43F400123C
:101F3800FB685A620123D8E0FB681A68BB681B3348
:101F48001B0113441B6803F004027B689A607B68DA
:101F58009B68002B0CD1FB681A68BB681B331B01FC
:101F680013441B685B0DC3F30A027B681A600BE01D
:101F7800FB681A68BB681B331B0113441B68DB082A
:101F880023F060427B685A60FB681A68BB681B33A1
:101F98001B0113441B6803F002027B68DA60FB68CC
:101FA8001A68BB681B331B01134404331B6803F016
:101FB8000F027B681A61FB681A68BB681B331B0138
:101FC800134404331B681B0ADAB27B689A61FB6806
:101FD8001A68BB681B331B01134404331B681B0CB2
:101FE8009AB27B685A61FB681A68BB681B01134484
:101FF80003F5DC731B68DAB23B681A70FB681A6871
:10200800BB681B01134403F5DC731B681A0A3B68A1
:102018000133D2B21A70FB681A68BB681B011344FB
:1020280003F5DC731B681A0C3B680233D2B21A70D2
:10203800FB681A68BB681B01134403F5DC731B6853
:102048001A0E3B680333D2B21A70FB681A68BB6871
:102058001B01134403F5DE731A683B680433D2B2DC
:102068001A70FB681A68BB681B01134403F5DE731A
:102078001B681A0A3B680533D2B21A70FB681A68E3
:10208800BB681B01134403F5DE731B681A0C3B681D
:102098000633D2B21A70FB681A68BB681B01134476
:1020A80003F5DE731B681A0E3B680733D2B21A7049
:1020B800BB68002B08D1FB681B68DA68FB681B68E3
:1020C80042F02002DA6007E0FB681B681A69FB68C7
:1020D8001B6842F020021A61002306E0FB685B6A75
:1020E80043F48022FB685A62012318461C37BD4618
:1020F8005DF8047B704780B485B000AF78603960C4
:102108007B6893F82030FB73FB7B012B02D0FB7BB1
:10211800022B09D17B681B6859697B681B683A6880
:102128000A435A61002306E07B685B6A43F4802215
:102138007B685A62012318461437BD465DF8047B54
:10214800704780B58AB000AF786000237B627B68F7
:102158001B685B693B627B681B685B68FB617B682B
:102168001B689B68BB617B681B68DB687B617B685D
:102178001B681B693B617B681B689B69FB603B6A4A
:1021880003F00103002B7CD0BB6903F00103002B93
:1021980023D07B681B6801229A60BB6903F00203A5
:1021A800002B03D0786800F083F916E0BB6903F0D0
:1021B8000403002B04D07B6A43F400637B620CE0C9
:1021C800BB6903F00803002B04D07B6A43F48053F7
:1021D8007B6202E0786800F089F9BB6903F48073D8
:1021E800002B24D07B681B684FF480729A60BB690F
:1021F80003F40073002B03D0786800F063F916E04D
:10220800BB6903F48063002B04D07B6A43F400535A
:102218007B620CE0BB6903F40063002B04D07B6A8B
:1022280043F480437B6202E0786800F069F9BB6997
:1022380003F48033002B24D07B681B684FF4803272
:102248009A60BB6903F40033002B03D0786800F070
:1022580043F916E0BB6903F48023002B04D07B6AA2
:1022680043F400437B620CE0BB6903F40023002BBA
:1022780004D07B6A43F480337B6202E0786800F024
:1022880049F93B6A03F00803002B0CD07B6903F083
:102298001003002B07D07B6A43F400737B627B68D2
:1022A8001B681022DA603B6A03F00403002B0BD092
:1022B8007B6903F00803002B06D07B681B680822A3
:1022C800DA60786800F030F93B6A03F00203002B0B
:1022D80009D07B681B68DB6803F00303002B02D07E
:1022E8007868FEF759FA3B6A03F04003002B0CD0DC
:1022F8003B6903F01003002B07D07B6A43F480632B
:102308007B627B681B6810221A613B6A03F020031A
:10231800002B0BD03B6903F00803002B06D07B6829
:102328001B6808221A61786800F012F93B6A03F00A
:102338001003002B09D07B681B681B6903F003039B
:10234800002B02D0786800F0F9F83B6A03F40033F8
:10235800002B0BD0FB6903F01003002B06D07B6821
:102368001B6810225A60786800F0FCF83B6A03F496
:102378008033002B0BD0FB6903F00803002B06D039
:102388007B681B6808225A60786800F0F5F83B6A99
:1023980003F40043002B7BD0FB6903F00403002BFC
:1023A80072D03B6A03F48073002B08D0FB6803F0FB
:1023B8000103002B03D07B6A43F001037B623B6A75
:1023C80003F40073002B08D0FB6803F00203002B12
:1023D80003D07B6A43F002037B623B6A03F48063A9
:1023E800002B08D0FB6803F00403002B03D07B6AA2
:1023F80043F004037B623B6A03F40063002B43D081
:10240800FB6803F07003002B3ED0FB6803F07003F9
:10241800602B2BD0602B2ED8502B22D0502B2AD8B3
:10242800402B19D0402B26D8302B10D0302B22D857
:10243800102B02D0202B05D01DE07B6A43F0080347
:102448007B6219E07B6A43F010037B6214E07B6ACD
:1024580043F020037B620FE07B6A43F040037B621A
:102468000AE07B6A43F080037B6205E07B6A43F401
:1024780080737B6200E000BF7B681B689A697B6899
:102488001B6822F070029A617B681B6804225A60FC
:102498007B6A002B08D07B685A6A7B6A1A437B6880
:1024A8005A62786800F072F800BF2837BD4680BDD0
:1024B80080B483B000AF786000BF0C37BD465DF8CC
:1024C800047B704780B483B000AF786000BF0C37DE
:1024D800BD465DF8047B704780B483B000AF786078
:1024E80000BF0C37BD465DF8047B704780B483B0ED
:1024F80000AF786000BF0C37BD465DF8047B7047BD
:1025080080B483B000AF786000BF0C37BD465DF87B
:10251800047B704780B483B000AF786000BF0C378D
:10252800BD465DF8047B704780B483B000AF786027
:1025380000BF0C37BD465DF8047B704780B483B09C
:1025480000AF786000BF0C37BD465DF8047B70476C
:1025580080B483B000AF786000BF0C37BD465DF82B
:10256800047B704780B483B000AF786000BF0C373D
:10257800BD465DF8047B704780B483B000AF7860D7
:1025880000BF0C37BD465DF8047B704780B483B04C
:1025980000AF786000BF0C37BD465DF8047B70471C
:1025A80080B485B000AF78607B6803F00703FB60F8
:1025B8000C4BDB68BB60BA684FF6FF031340BB6087
:1025C800FB681A02BB68134343F0BF6343F400334C
:1025D800BB60044ABB68D36000BF1437BD465DF8D2
:1025E800047B704700ED00E080B400AF044BDB686B
:1025F8001B0A03F007031846BD465DF8047B7047C5
:1026080000ED00E080B483B000AF0346FB7197F99A
:102618000730002B0BDBFB7903F01F02074997F902
:1026280007305B09012000FA02F241F8232000BFBD
:102638000C37BD465DF8047B704700BF00E100E041
:1026480080B483B000AF03463960FB7197F9073057
:10265800002B0ADB3B68DAB20C4997F90730120104
:10266800D2B20B4483F800230AE03B68DAB2084987
:10267800FB7903F00F03043B1201D2B20B441A7624
:1026880000BF0C37BD465DF8047B704700E100E0F1
:1026980000ED00E080B489B000AFF860B9607A60FE
:1026A800FB6803F00703FB61FB69C3F10703042B15
:1026B80028BF0423BB61FB690433062B02D9FB69DD
:1026C800033B00E000237B614FF0FF32BB6902FA55
:1026D80003F3DA43BB681A407B699A404FF0FF3135
:1026E8007B6901FA03F3D9437B680B40134318460F
:1026F8002437BD465DF8047B7047000080B582B082
:1027080000AF78607B68013BB3F1807F01D3012380
:102718000FE00A4A7B68013B53600F214FF0FF30FE
:10272800FFF78EFF054B00229A60044B07221A60C0
:10273800002318460837BD4680BD00BF10E000E002
:1027480080B582B000AF78607868FFF729FF00BFD6
:102758000837BD4680BD80B586B000AF0346B96076
:102768007A60FB7300237B61FFF73EFF78617A682C
:10277800B9687869FFF78EFF024697F90F3011465E
:102788001846FFF75DFF00BF1837BD4680BD80B50E
:1027980082B000AF0346FB7197F907301846FFF780
:1027A80031FF00BF0837BD4680BD80B582B000AF9D
:1027B80078607868FFF7A2FF034618460837BD46D9
:1027C80080BD000080B586B000AF786000237B61D3
:1027D800FFF754F838617B68002B01D1012399E099
:1027E8007B68022283F835207B68002283F8342036
:1027F8007B681B681A687B681B6822F001021A60F4
:102808000FE0FFF73BF802463B69D31A052B08D9BE
:102818007B6820225A657B68032283F835200323CE
:1028280078E07B681B681B6803F00103002BE8D184
:102838007B681B681B687B617A69384B13407B6136
:102848007B685A687B689B681A437B68DB681A4315
:102858007B681B691A437B685B691A437B689B69C1
:102868001A437B68DB691A437B681B6A13437A69DE
:1028780013437B617B685B6A042B07D17B68DA6A48
:102888007B681B6B13437A6913437B617B681B6806
:102898007A691A607B681B685B697B617B6923F0D6
:1028A80007037B617B685B6A7A6913437B617B689A
:1028B8005B6A042B17D17B689B6A7A6913437B6137
:1028C8007B68DB6A002B0ED0786800F001FB0346BA
:1028D800002B08D07B6840225A657B68012283F868
:1028E8003520012316E07B681B687A695A6178688D
:1028F80000F0B8FA0346FB607B68DB6D3F229A4024
:10290800FB689A607B6800225A657B68012283F81D
:102918003520002318461837BD4680BD3F8010F08B
:1029280080B586B000AFF860B9607A603B6000237C
:10293800FB75FB689B6D3B61FB6893F83430012B9A
:1029480001D1022340E0FB68012283F83420FB68B0
:1029580093F83530DBB2012B2FD1FB68022283F8C4
:102968003520FB6800225A653B687A68B968F868C0
:1029780000F04AFAFB68DB6D3F229A403B699A6097
:10298800FB681B681A68FB681B6842F016021A602D
:10299800FB681B6C002B07D0FB681B681A68FB6878
:1029A8001B6842F008021A60FB681B681A68FB681B
:1029B8001B6842F001021A6005E0FB68002283F8F8
:1029C80034200223FB75FB7D18461837BD4680BDB1
:1029D80080B584B000AF78607B689B6DFB60FEF7C4
:1029E8004DFFB8607B6893F83530DBB2022B08D016
:1029F8007B6880225A657B68002283F83420012393
:102A080052E07B681B681A687B681B6822F0160214
:102A18001A607B681B685A697B681B6822F0800211
:102A28005A617B681B6C002B03D17B689B6C002B65
:102A380007D07B681B681A687B681B6822F008024D
:102A48001A607B681B681A687B681B6822F00102A1
:102A58001A6013E0FEF712FF0246BB68D31A052B73
:102A68000CD97B6820225A657B68032283F83520BD
:102A78007B68002283F83420032315E07B681B68F9
:102A88001B6803F00103002BE4D17B68DB6D3F2258
:102A98009A40FB689A607B68012283F835207B683E
:102AA800002283F83420002318461037BD4680BD25
:102AB80080B483B000AF78607B6893F83530DBB2C0
:102AC800022B04D07B6880225A6501230CE07B68C6
:102AD800052283F835207B681B681A687B681B68A9
:102AE80022F001021A60002318460C37BD465DF833
:102AF800047B704780B586B000AF78600023BB6068
:102B08008E4B1B688E4AA2FB03239B0A7B617B6862
:102B18009B6D3B613B691B68FB607B68DB6D082232
:102B28009A40FB681340002B1AD07B681B681B680F
:102B380003F00403002B13D07B681B681A687B68BA
:102B48001B6822F004021A607B68DB6D08229A4039
:102B58003B699A607B685B6D43F001027B685A654C
:102B68007B68DB6D01229A40FB681340002B12D072
:102B78007B681B685B6903F08003002B0BD07B68C4
:102B8800DB6D01229A403B699A607B685B6D43F07C
:102B980002027B685A657B68DB6D04229A40FB68F9
:102BA8001340002B12D07B681B681B6803F00203DC
:102BB800002B0BD07B68DB6D04229A403B699A603E
:102BC8007B685B6D43F004027B685A657B68DB6D4C
:102BD80010229A40FB681340002B43D07B681B6887
:102BE8001B6803F00803002B3CD07B68DB6D1022C8
:102BF8009A403B699A607B681B681B6803F48023D2
:102C0800002B18D07B681B681B6803F40023002B7B
:102C180008D17B681B6C002B24D07B681B6C786800
:102C280098471FE07B689B6C002B1BD07B689B6CD4
:102C38007868984716E07B681B681B6803F4807304
:102C4800002B07D17B681B681A687B681B6822F019
:102C580008021A607B681B6C002B03D07B681B6C16
:102C6800786898477B68DB6D20229A40FB681340A0
:102C7800002B00F08F807B681B681B6803F0100333
:102C8800002B00F087807B68DB6D20229A403B692F
:102C98009A607B6893F83530DBB2052B36D17B68B8
:102CA8001B681A687B681B6822F016021A607B682A
:102CB8001B685A697B681B6822F080025A617B682E
:102CC8001B6C002B03D17B689B6C002B07D07B68A7
:102CD8001B681A687B681B6822F008021A607B6808
:102CE800DB6D3F229A403B699A607B68012283F83A
:102CF80035207B68002283F834207B681B6D002B0D
:102D08007ED07B681B6D7868984779E07B681B6884
:102D18001B6803F48023002B1DD07B681B681B688D
:102D280003F40023002B0DD17B685B6C002B31D0A2
:102D38007B685B6C786898472CE000BF40010020F6
:102D4800B5814E1B7B68DB6B002B23D07B68DB6B6C
:102D5800786898471EE07B681B681B6803F48073DB
:102D6800002B0FD17B681B681A687B681B6822F0F0
:102D780010021A607B68012283F835207B680022E4
:102D880083F834207B68DB6B002B03D07B68DB6B1C
:102D9800786898477B685B6D002B32D07B685B6DE9
:102DA80003F00103002B22D07B68052283F835202D
:102DB8007B681B681A687B681B6822F001021A602E
:102DC800BB680133BB607A699A4207D37B681B688A
:102DD8001B6803F00103002BF2D100E000BF7B6801
:102DE800012283F835207B68002283F834207B6831
:102DF800DB6C002B05D07B68DB6C7868984700E0BB
:102E080000BF1837BD4680BD80B485B000AFF860FC
:102E1800B9607A603B60FB681B681A68FB681B68CE
:102E280022F480221A60FB681B683A685A60FB68C3
:102E38009B68402B08D1FB681B687A689A60FB681E
:102E48001B68BA68DA6007E0FB681B68BA689A60B2
:102E5800FB681B687A68DA6000BF1437BD465DF806
:102E6800047B704780B485B000AF78607B681B68CE
:102E7800DBB2103B144AA2FB03231B09FB60134A75
:102E8800FB6813441B781A467B68DA65FB68032BDA
:102E980009D97B681B6823F47F7323F003031A1D89
:102EA8007B689A6507E07B681B6823F47F7323F0CF
:102EB80003037A6893657B689B6D18461437BD4693
:102EC8005DF8047B704700BFABAAAAAA444E00086D
:102ED80080B485B000AF78600023FB737B689B6A81
:102EE800BB607B689B69002B1FD1BB68032B56D83E
:102EF80001A252F823F000BF112F0008232F000869
:102F0800112F0008A72F00087B68DB6A03F0807385
:102F1800002B46D00123FB7343E07B68DB6AB3F1E7
:102F2800C07F40D10123FB733DE07B689B69B3F50B
:102F3800005F21D1BB68032B37D801A252F823F0D8
:102F4800592F00085F2F0008592F0008712F00081B
:102F58000123FB7330E07B68DB6A03F08073002B8E
:102F680025D00123FB7322E07B68DB6AB3F1C07FC5
:102F78001FD10123FB731CE0BB68022B03D9BB687C
:102F8800032B03D018E00123FB7315E07B68DB6A91
:102F980003F08073002B0ED00123FB730BE000BFFE
:102FA8000AE000BF08E000BF06E000BF04E000BF81
:102FB80002E000BF00E000BFFB7B18461437BD46A7
:102FC8005DF8047B704700BF80B489B000AF7860BB
:102FD800396000237B6100233B610023BB61002330
:102FE800FB616BE10122FB6902FA03F37B613B6839
:102FF8001B687A6913403B613A697B699A4240F0E1
:103008005A813B685B6803F00303012B05D03B68DA
:103018005B6803F00303022B30D17B689B68BB61BC
:10302800FB695B00032202FA03F3DB43BA6913402E
:10303800BB613B68DA68FB695B0002FA03F3BA69B3
:103048001343BB617B68BA699A607B685B68BB6144
:103058000122FB6902FA03F3DB43BA691340BB613F
:103068003B685B681B0903F00102FB6902FA03F382
:10307800BA691343BB617B68BA695A603B685B688D
:1030880003F00303032B17D07B68DB68BB61FB6984
:103098005B00032202FA03F3DB43BA691340BB6106
:1030A8003B689A68FB695B0002FA03F3BA69134349
:1030B800BB617B68BA69DA603B685B6803F003034D
:1030C800022B23D1FB69DA087B68083253F82230D7
:1030D800BB61FB6903F007039B000F2202FA03F3AD
:1030E800DB43BA691340BB613B681A69FB6903F0AB
:1030F80007039B0002FA03F3BA691343BB61FB6938
:10310800DA087B680832B96943F822107B681B68C3
:10311800BB61FB695B00032202FA03F3DB43BA6974
:103128001340BB613B685B6803F00302FB695B000B
:1031380002FA03F3BA691343BB617B68BA691A6080
:103148003B685B6803F44033002B00F0B480002335
:10315800FB60604B5B6C5F4A43F4804353645D4B98
:103168005B6C03F48043FB60FB685B4AFB699B086C
:10317800023352F82330BB61FB6903F003039B0061
:103188000F2202FA03F3DB43BA691340BB617B6881
:10319800524A93422BD07B68514A934225D07B6890
:1031A800504A93421FD07B684F4A934219D07B689C
:1031B8004E4A934213D07B684D4A93420DD07B68A8
:1031C8004C4A934207D07B684B4A934201D107236C
:1031D8000EE008230CE006230AE0052308E0042398
:1031E80006E0032304E0022302E0012300E00023B9
:1031F800FA6902F0030292009340BA691343BB6173
:103208003549FB699B080233BA6941F823203B4BD7
:103218009B68BB613B69DB43BA691340BB613B6890
:103228005B6803F48013002B03D0BA693B6913432E
:10323800BB61324ABB699360304BDB68BB613B6959
:10324800DB43BA691340BB613B685B6803F4001356
:10325800002B03D0BA693B691343BB61274ABB699A
:10326800D360264B5B68BB613B69DB43BA6913409B
:10327800BB613B685B6803F40033002B03D0BA6979
:103288003B691343BB611D4ABB6953601B4B1B68F9
:10329800BB613B69DB43BA691340BB613B685B6850
:1032A80003F48033002B03D0BA693B691343BB6135
:1032B800124ABB691360FB690133FB61FB690F2B81
:1032C8007FF690AE00BF00BF2437BD465DF8047B93
:1032D800704700BF0038024000380140000002403B
:1032E8000004024000080240000C024000100240A6
:1032F8000014024000180240001C0240003C01403B
:1033080080B586B000AF78607B68002B01D10123BF
:1033180067E27B681B6803F00103002B75D0884BBC
:103328009B6803F00C03042B0CD0854B9B6803F0BF
:103338000C03082B12D1824B5B6803F48003B3F5AE
:10334800800F0BD17E4B1B6803F40033002B5BD03E
:103358007B685B68002B57D1012342E27B685B687E
:10336800B3F5803F06D1764B1B68754A43F480332A
:1033780013601DE07B685B68B3F5A02F0CD1704B20
:103388001B686F4A43F4802313606D4B1B686C4ABB
:1033980043F4803313600BE0694B1B68684A23F4DD
:1033A80080331360664B1B68654A23F480231360DF
:1033B8007B685B68002B13D0FEF760FA386108E081
:1033C800FEF75CFA02463B69D31A642B01D9032342
:1033D80007E25B4B1B6803F40033002BF0D014E0CA
:1033E800FEF74CFA386108E0FEF748FA02463B69F6
:1033F800D31A642B01D90323F3E1514B1B6803F45F
:103408000033002BF0D100E000BF7B681B6803F09D
:103418000203002B63D04A4B9B6803F00C03002B7C
:103428000BD0474B9B6803F00C03082B1CD1444B73
:103438005B6803F48003002B16D1414B1B6803F033
:103448000203002B05D07B68DB68012B01D0012328
:10345800C7E13B4B1B6823F0F8027B681B69DB0064
:10346800374913430B603AE07B68DB68002B20D0B8
:10347800344B01221A60FEF701FA386108E0FEF7C2
:10348800FDF902463B69D31A022B01D90323A8E1AF
:103498002B4B1B6803F00203002BF0D0284B1B6852
:1034A80023F0F8027B681B69DB00254913430B6096
:1034B80015E0244B00221A60FEF7E0F9386108E0B5
:1034C800FEF7DCF902463B69D31A022B01D9032324
:1034D80087E11B4B1B6803F00203002BF0D17B68CC
:1034E8001B6803F00803002B36D07B685B69002B50
:1034F80016D0154B01221A60FEF7C0F9386108E0B2
:10350800FEF7BCF902463B69D31A022B01D9032303
:1035180067E10B4B5B6F03F00203002BF0D01BE05D
:10352800094B00221A60FEF7A9F938610EE0FEF790
:10353800A5F902463B69D31A022B07D9032350E1A8
:103548000038024000004742800E4742884B5B6FBC
:1035580003F00203002BEAD17B681B6803F0040325
:10356800002B00F097800023FB75814B1B6C03F048
:103578008053002B0FD10023BB607D4B1B6C7C4A12
:1035880043F0805313647A4B1B6C03F08053BB6089
:10359800BB680123FB75774B1B6803F48073002B12
:1035A80018D1744B1B68734A43F480731360FEF799
:1035B80065F9386108E0FEF761F902463B69D31AFC
:1035C800022B01D903230CE16A4B1B6803F48073B7
:1035D800002BF0D07B689B68012B06D1644B1B6FD6
:1035E800634A43F0010313671CE07B689B68052B63
:1035F8000CD15F4B1B6F5E4A43F0040313675C4BAF
:103608001B6F5B4A43F0010313670BE0584B1B6FBA
:10361800574A23F001031367554B1B6F544A23F095
:10362800040313677B689B68002B15D0FEF726F907
:1036380038610AE0FEF722F902463B69D31A41F2E3
:103648008832934201D90323CBE0494B1B6F03F027
:103658000203002BEED014E0FEF710F938610AE0FF
:10366800FEF70CF902463B69D31A41F288329342BD
:1036780001D90323B5E03E4B1B6F03F00203002B77
:10368800EED1FB7D012B05D1394B1B6C384A23F059
:10369800805313647B689B69002B00F0A180344B36
:1036A8009B6803F00C03082B5CD07B689B69022B9A
:1036B80041D1314B00221A60FEF7E0F8386108E08A
:1036C800FEF7DCF802463B69D31A022B01D9032323
:1036D80087E0274B1B6803F00073002BF0D17B6851
:1036E800DA697B681B6A1A437B685B6A9B011A4329
:1036F8007B689B6A5B08013B1B041A437B68DB6A97
:103708001B061B4913434B601B4B01221A60FEF733
:10371800B5F8386108E0FEF7B1F802463B69D31AFC
:10372800022B01D903235CE0114B1B6803F00073E3
:10373800002BF0D054E0104B00221A60FEF79EF8E0
:10374800386108E0FEF79AF802463B69D31A022B63
:1037580001D9032345E0064B1B6803F00073002BD7
:10376800F0D13DE07B689B69012B07D1012338E04C
:103778000038024000700040600047421B4B5B6805
:10378800FB607B689B69012B28D0FB6803F48002EF
:103798007B68DB699A4221D1FB6803F03F027B68B2
:1037A8001B6A9A421AD1FA6847F6C07313407A68BE
:1037B800526A9201934211D1FB6803F440327B684C
:1037C8009B6A5B08013B1B049A4207D1FB6803F024
:1037D80070627B68DB6A1B069A4201D0012300E015
:1037E800002318461837BD4680BD00BF0038024088
:1037F80080B584B000AF786039607B68002B01D158
:103808000123CCE0684B1B6803F007033A689A422F
:103818000CD9654B3A68D2B21A70634B1B6803F037
:1038280007033A689A4201D00123B8E07B681B6815
:1038380003F00203002B20D07B681B6803F004030D
:10384800002B05D0594B9B68584A43F4E0539360CA
:103858007B681B6803F00803002B05D0534B9B685B
:10386800524A43F460439360504B9B6823F0F00244
:103878007B689B684D4913438B607B681B6803F02A
:103888000103002B44D07B685B68012B07D1474BB1
:103898001B6803F40033002B19D101237FE07B68F8
:1038A8005B68022B03D07B685B68032B07D13F4B17
:1038B8001B6803F00073002B09D101236FE03B4B19
:1038C8001B6803F00203002B01D1012367E0374B8B
:1038D8009B6823F003027B685B68344913438B6061
:1038E800FDF7CCFFF8600AE0FDF7C8FF0246FB6869
:1038F800D31A41F28832934201D903234FE02B4B6C
:103908009B6803F00C027B685B689B009A42EBD1D2
:10391800254B1B6803F007033A689A420CD2224BE6
:103928003A68D2B21A70204B1B6803F007033A6852
:103938009A4201D0012332E07B681B6803F004033C
:10394800002B08D0194B9B6823F4E0527B68DB6896
:10395800164913438B607B681B6803F00803002B30
:1039680009D0124B9B6823F460427B681B69DB001B
:103978000E4913438B6000F021F802460B4B9B68FD
:103988001B0903F00F030A49CB5C22FA03F3094A27
:103998001360094B1B681846FDF72CFF00231846D7
:1039A8001037BD4680BD00BF003C024000380240D1
:1039B8002C4E000840010020440100202DE9B04FA2
:1039C80090B000AF00237B630023FB6300233B63BD
:1039D8000023BB63594B9B6803F00C03082B0DD0E5
:1039E800082B00F2A180002B02D0042B03D09BE00F
:1039F800534BBB639BE0534BBB6398E04F4B5B68F7
:103A080003F03F037B634D4B5B6803F48003002B9B
:103A180028D04A4B5B689B0900223B627A623B6A6A
:103A2800C3F308000021474B03FB01F2002300FB0E
:103A380003F31344434AA0FB0212FA620A46BA622D
:103A4800FA6A1344FB627B6B0022BB61FA61D7E917
:103A58000623D7E90A01FCF7B3FB02460B461346D7
:103A6800FB6353E0354B5B689B0900223B617A613D
:103A78003B69C3F3080A4FF0000B52465B464FF010
:103A880000004FF00001590141EAD261500102469D
:103A98000B46B2EB0A0863EB0B094FF000024FF03C
:103AA80000034FEA891343EA98634FEA8812B2EB9E
:103AB800080463EB09054FF000024FF00003EB0028
:103AC80043EA5473E20014461D4614EB0A033B60B4
:103AD80045EB0B037B604FF000024FF00003D7E982
:103AE800004529468B02214643EA915321468A0222
:103AF800104619467B6B0022BB60FA60D7E90223A7
:103B0800FCF75EFB02460B461346FB630B4B5B68F8
:103B18001B0C03F0030301335B003B63FA6B3B6B45
:103B2800B2FBF3F3BB6302E0054BBB6300BFBB6BA7
:103B380018464037BD46BDE8B08F00BF0038024088
:103B48000024F400001BB70080B400AF034B1B68CF
:103B58001846BD465DF8047B704700BF4001002051
:103B680080B500AFFFF7F0FF0246054B9B689B0A44
:103B780003F007030349CB5C22FA03F3184680BD20
:103B8800003802403C4E000880B500AFFFF7DCFF6C
:103B98000246054B9B685B0B03F007030349CB5CAC
:103BA80022FA03F3184680BD003802403C4E000854
:103BB80080B582B000AF78607B68002B01D101230B
:103BC8003FE07B6893F83D30DBB2002B06D17B6881
:103BD800002283F83C207868FDF7C4FC7B68242227
:103BE80083F83D207B681B68DA687B681B6822F4D1
:103BF8000052DA60786800F069FE7B681B681A6911
:103C08007B681B6822F490421A617B681B685A69BA
:103C18007B681B6822F02A025A617B681B68DA6895
:103C28007B681B6842F40052DA607B6800221A64E1
:103C38007B68202283F83D207B68202283F83E2081
:103C4800002318460837BD4680BD80B584B000AF54
:103C5800F860B9601346FB80FB6893F83E30DBB22E
:103C6800202B1DD1BB68002B02D0FB88002B01D173
:103C7800012316E0FB6893F83C30012B01D10223A5
:103C88000FE0FB68012283F83C20FB6800221A63DE
:103C9800FB881A46B968F86800F0B8FB034600E0EC
:103CA800022318461037BD4680BD000080B5BAB063
:103CB80000AF78607B681B681B68C7F8E4307B68D6
:103CC8001B68DB68C7F8E0307B681B685B69C7F86E
:103CD800DC300023C7F8D8300023C7F8D430D7F831
:103CE800E43003F00F03C7F8D830D7F8D830002BEA
:103CF8000FD1D7F8E43003F02003002B09D0D7F810
:103D0800E03003F02003002B03D0786800F023FD97
:103D180056E2D7F8D830002B00F0DE80D7F8DC3038
:103D280003F00103002B06D1D7F8E03003F49073B9
:103D3800002B00F0D180D7F8E43003F00103002B0A
:103D48000BD0D7F8E03003F48073002B05D07B68E4
:103D58001B6C43F001027B681A64D7F8E43003F067
:103D68000403002B0BD0D7F8DC3003F00103002B41
:103D780005D07B681B6C43F002027B681A64D7F895
:103D8800E43003F00203002B0BD0D7F8DC3003F04B
:103D98000103002B05D07B681B6C43F004027B6891
:103DA8001A64D7F8E43003F00803002B11D0D7F8D1
:103DB800E03003F02003002B05D1D7F8DC3003F006
:103DC8000103002B05D07B681B6C43F008027B685D
:103DD8001A647B681B6C002B00F0ED81D7F8E43087
:103DE80003F02003002B08D0D7F8E03003F02003BD
:103DF800002B02D0786800F0AEFC7B681B685B691A
:103E080003F04003402B0CBF01230023DBB2C7F8AB
:103E1800D4307B681B6C03F00803002B03D1D7F860
:103E2800D430002B4FD0786800F0B6FB7B681B6855
:103E38005B6903F04003402B41D17B681B68143356
:103E4800C7F89C30D7F89C3053E8003FC7F8983043
:103E5800D7F8983023F04003C7F8D0307B681B6848
:103E68001433D7F8D020C7F8A820C7F8A430D7F85B
:103E7800A410D7F8A82041E80023C7F8A030D7F845
:103E8800A030002BD9D17B689B6B002B13D07B68AB
:103E98009B6B7D4A1A657B689B6B1846FEF708FE8C
:103EA8000346002B16D07B689B6B1B6D7A68926B60
:103EB800104698470EE0786800F09AF90AE07868AA
:103EC80000F096F906E0786800F092F97B68002225
:103ED8001A6470E100BF6EE17B681B6B012B40F038
:103EE8004A81D7F8E43003F01003002B00F0438137
:103EF800D7F8E03003F01003002B00F03C810023DA
:103F0800BB607B681B681B68BB607B681B685B6861
:103F1800BB60BB687B681B685B6903F04003402B90
:103F280040F0B4807B689B6B1B685B68A7F8BE3069
:103F3800B7F8BE30002B00F040817B689B8DB7F846
:103F4800BE209A4280F039817B68B7F8BE20DA85B6
:103F58007B689B6BDB69B3F5807F00F088807B68AA
:103F68001B680C33C7F88830D7F8883053E8003F0F
:103F7800C7F88430D7F8843023F48073C7F8B83092
:103F88007B681B680C33D7F8B820C7F89420C7F8AB
:103F98009030D7F89010D7F8942041E80023C7F85C
:103FA8008C30D7F88C30002BD9D17B681B68143340
:103FB8007B677B6F53E8003F3B673B6F23F0010350
:103FC800C7F8B4307B681B681433D7F8B420C7F837
:103FD8008020FB67F96FD7F8802041E80023BB6792
:103FE800BB6F002BE1D17B681B6814333B663B6ECB
:103FF80053E8003FFB65FB6D23F04003C7F8B03082
:104008007B681B681433D7F8B020FA66BB66B96EB4
:10401800FA6E41E800237B667B6E002BE3D17B6858
:10402800202283F83E207B6800221A637B681B6885
:104038000C33FB64FB6C53E8003FBB64BB6C23F0A0
:104048001003C7F8AC307B681B680C33D7F8AC207A
:10405800BA657B65796DBA6D41E800233B653B6DB8
:10406800002BE3D17B689B6B1846FEF7B1FC7B689D
:104078009A8D7B68DB8D9BB2D31A9BB21946786800
:1040880000F0C0F899E000BF674600087B689A8D89
:104098007B68DB8D9BB2D31AA7F8CE307B68DB8DAB
:1040A8009BB2002B00F08B80B7F8CE30002B00F0CD
:1040B80086807B681B680C33BB63BB6B53E8003F8F
:1040C8007B637B6B23F49073C7F8C8307B681B68ED
:1040D8000C33D7F8C8207A643B64396C7A6C41E8B1
:1040E8000023FB63FB6B002BE3D17B681B68143355
:1040F8007B627B6A53E8003F3B623B6A23F0010323
:10410800C7F8C4307B681B681433D7F8C4203A63F7
:10411800FB62F96A3A6B41E80023BB62BB6A002B79
:10412800E3D17B68202283F83E207B6800221A6353
:104138007B681B680C333B613B6953E8003FFB60BD
:10414800FB6823F01003C7F8C0307B681B680C338A
:10415800D7F8C020FA61BB61B969FA6941E8002360
:104168007B617B69002BE3D1B7F8CE3019467868BC
:1041780000F048F823E0D7F8E43003F08003002B80
:1041880009D0D7F8E03003F08003002B03D078681B
:1041980000F079FA14E0D7F8E43003F04003002B7C
:1041A8000ED0D7F8E03003F04003002B08D0786831
:1041B80000F0B9FA04E000BF02E000BF00E000BF71
:1041C800E837BD4680BD00BF80B483B000AF7860DB
:1041D80000BF0C37BD465DF8047B704780B483B0E0
:1041E80000AF786000BF0C37BD465DF8047B7047B0
:1041F80080B483B000AF786000BF0C37BD465DF86F
:10420800047B704780B483B000AF78600B467B8036
:1042180000BF0C37BD465DF8047B704780B59CB085
:1042280000AF78607B689B6BFB667B681B681B68CC
:1042380003F48073002B72D1FB6E0022DA85FB6ECB
:104248001B680C33FB64FB6C53E8003FBB64BB6C1E
:1042580023F48073BB66FB6E1B680C33BA6EBA65B9
:104268007B65796DBA6D41E800233B653B6D002B9A
:10427800E5D1FB6E1B681433BB63BB6B53E8003F8F
:104288007B637B6B23F001037B66FB6E1B68143337
:104298007A6E7A643B64396C7A6C41E80023FB637C
:1042A800FB6B002BE5D1FB6E1B6814337B627B6ACA
:1042B80053E8003F3B623B6A23F040033B66FB6EDA
:1042C8001B6814333A6E3A63FB62F96A3A6B41E849
:1042D8000023BB62BB6A002BE5D1FB6E202283F86A
:1042E8003E20FB6E1B6B012B19D1FB6E1B680C3338
:1042F8003B613B6953E8003FFB60FB6823F0100318
:10430800FB65FB6E1B680C33FA6DFA61BB61B9691A
:10431800FA6941E800237B617B69002BE5D1FB6EDC
:104328001B6B012B06D1FB6E9B8D1946F86EFFF7B0
:1043380069FF02E0F86EFCF7CDFF00BF7037BD469D
:1043480080BD80B584B000AF78607B689B6BFB60F4
:10435800FB681B6B012B08D1FB689B8D5B089BB22C
:104368001946F868FFF74EFF02E0F868FFF736FFD6
:1043780000BF1037BD4680BD80B584B000AF7860FF
:104388000023FB607B689B6BBB60BB681B685B6939
:1043980003F08003802B0CBF01230023DBB2FB60FA
:1043A800BB6893F83D30DBB2212B08D1FB68002BAA
:1043B80005D0BB680022DA84B86800F0C5F8BB688D
:1043C8001B685B6903F04003402B0CBF01230023EB
:1043D800DBB2FB60BB6893F83E30DBB2222B08D11E
:1043E800FB68002B05D0BB680022DA85B86800F0AE
:1043F800D3F8BB681B6C43F01002BB681A64B8683A
:10440800FFF7F6FE00BF1037BD4680BD80B598B0F7
:1044180000AFF860B9601346FB80BA68FB689A621F
:10442800FB68FA889A85FB6800221A64FB682222D6
:1044380083F83E20FB689B6B404ADA63FB689B6B02
:104448003F4A1A64FB689B6B3E4ADA64FB689B6BC5
:1044580000221A6507F10803FB65FB68986BFB6887
:104468001B6804331946FB6D1A68FB88FEF758FA77
:1044780000233B61FB681B681B683B61FB681B688A
:104488005B683B613B69FB68002283F83C20FB6862
:104498001B69002B19D0FB681B680C333B643B6C11
:1044A80053E8003FFB63FB6B43F48073BB65FB6819
:1044B8001B680C33BA6DFA64BB64B96CFA6C41E8DA
:1044C80000237B647B6C002BE5D1FB681B681433ED
:1044D800FB62FB6A53E8003FBB62BB6A43F001031F
:1044E8007B65FB681B6814337A6DBA637B63796BF1
:1044F800BA6B41E800233B633B6B002BE5D1FB68BB
:104508001B681433BB61BB6953E8003F7B617B695F
:1045180043F040033B65FB681B6814333A6D7A62CD
:104528003B62396A7A6A41E80023FB61FB69002B28
:10453800E5D1002318466037BD4680BD25420008F6
:104548004B4300088143000880B489B000AF78600D
:104558007B681B680C33FB60FB6853E8003FBB605B
:10456800BB6823F0C003FB617B681B680C33FA69E6
:10457800BA617B617969BA6941E800233B613B69AB
:10458800002BE5D17B68202283F83D2000BF24372B
:10459800BD465DF8047B704780B495B000AF786085
:1045A8007B681B680C337B637B6B53E8003F3B6382
:1045B8003B6B23F49073FB647B681B680C33FA6CC9
:1045C8003A64FB63F96B3A6C41E80023BB63BB6B4D
:1045D800002BE5D17B681B6814333B623B6A53E8C8
:1045E800003FFB61FB6923F00103BB647B681B6828
:1045F8001433BA6CFA62BB62B96AFA6A41E80023FA
:104608007B627B6A002BE5D17B681B6B012B19D180
:104618007B681B680C33FB60FB6853E8003FBB609A
:10462800BB6823F010037B647B681B680C337A6CCF
:10463800BA617B617969BA6941E800233B613B69EA
:10464800002BE5D17B68202283F83E207B6800227E
:104658001A6300BF5437BD465DF8047B704780B5C8
:1046680084B000AF78607B689B6BFB60FB680022BE
:10467800DA85FB680022DA84F868FFF7B9FD00BF25
:104688001037BD4680BD80B485B000AF78607B68C8
:1046980093F83D30DBB2212B3ED17B689B68B3F5A4
:1046A800805F14D17B681B69002B10D17B681B6A63
:1046B800FB60FB681B881A467B681B68C2F308020C
:1046C8005A607B681B6A9A1C7B681A6208E07B68E0
:1046D8001B6A591C7A6811621A787B681B685A60D1
:1046E8007B68DB8C9BB2013B9BB27A681946D1840C
:1046F800002B0FD17B681B68DA687B681B6822F087
:104708008002DA607B681B68DA687B681B6842F0A5
:104718004002DA60002300E0022318461437BD4641
:104728005DF8047B704780B582B000AF78607B6825
:104738001B68DA687B681B6822F04002DA607B68D5
:10474800202283F83D207868FFF73EFD00231846B5
:104758000837BD4680BD80B58CB000AF78607B68F7
:1047680093F83E30DBB2222B40F0AB807B689B682D
:10477800B3F5805F17D17B681B69002B13D1002329
:10478800FB627B689B6ABB627B681B685B689BB249
:10479800C3F308039AB2BB6A1A807B689B6A9A1CA7
:1047A8007B689A6226E07B689B6AFB620023BB6297
:1047B8007B689B68B3F5805F07D07B689B68002B9C
:1047C8000AD17B681B69002B06D17B681B685B6874
:1047D800DAB2FB6A1A7008E07B681B685B68DBB2B8
:1047E80003F07F03DAB2FB6A1A707B689B6A5A1C73
:1047F8007B689A627B68DB8D9BB2013B9BB27A68CF
:104808001946D185002B5AD17B681B68DA687B680A
:104818001B6822F02002DA607B681B68DA687B6814
:104828001B6822F48072DA607B681B685A697B68AF
:104838001B6822F001025A617B68202283F83E201F
:104848007B681B6B012B35D17B6800221A637B6860
:104858001B680C337B617B6953E8003F3B613B6914
:1048680023F010037B627B681B680C337A6A3A6218
:10487800FB61F9693A6A41E80023BB61BB69002B17
:10488800E5D17B681B681B6803F01003102B0AD165
:104898000023FB607B681B681B68FB607B681B68E8
:1048A8005B68FB60FB687B689B8D19467868FFF73F
:1048B800A9FC02E07868FCF70DFD002302E0002364
:1048C80000E0022318463037BD4680BD2DE9B04FC1
:1048D800C0B000AFC7F8F400D7F8F4301B681B6904
:1048E80023F44050D7F8F430D968D7F8F4301A6870
:1048F80040EA01031361D7F8F4309A68D7F8F43026
:104908001B691A43D7F8F4305B691A43D7F8F430B7
:10491800DB691343C7F8F830D7F8F4301B68DB6855
:1049280023F4164121F00C01D7F8F4301A68D7F8AF
:10493800F8300B43D360D7F8F4301B685B6923F475
:104948004070D7F8F4309969D7F8F4301A6840EA1B
:1049580001035361D7F8F4301A688F4B9A4205D097
:10496800D7F8F4301A688D4B9A4204D1FFF70CF946
:10497800C7F8FC0003E0FFF7F3F8C7F8FC00D7F826
:10498800F430DB69B3F5004F40F00C81D7F8FC3008
:104998000022C7F8E830C7F8EC20D7E93A452246A4
:1049A8002B469118B9655B41FB65D7E9162321466B
:1049B80012EB0108294643EB01094FF000024FF0C2
:1049C80000034FEAC90343EA58734FEAC802904606
:1049D8009946234618EB0303C7F8E0302B4649EB0A
:1049E8000303C7F8E430D7F8F4305B680022C7F84F
:1049F800D830C7F8DC20D7E936120B46DB183B6500
:104A0800134642EB03037B65D7E91423D7E9380142
:104A1800FBF7D6FB02460B46614BA3FB02235B095F
:104A28001C01D7F8FC300022C7F8D030C7F8D420D2
:104A3800D7E9348942464B469118B9645B41FB6417
:104A4800D7E91223414612EB010A494643EB010B11
:104A58004FF000024FF000034FEACB0343EA5A73CA
:104A68004FEACA0292469B4643461AEB0303C7F82D
:104A7800C8304B464BEB0303C7F8CC30D7F8F430BB
:104A88005B680022C7F8C030C7F8C420D7E93012E5
:104A98000B46DB183B64134642EB03037B64D7E900
:104AA8001023D7E93201FBF78BFB02460B46114670
:104AB8003B4BA3FB01235B09642202FB03F3CB1AE4
:104AC800DB0003F13202364BA3FB02235B095B00D8
:104AD80003F4F8731C44D7F8FC300022C7F8B83048
:104AE800C7F8BC20D7E92E8942464B469118B963CE
:104AF8005B41FB63D7E90E234146511839634946A8
:104B08004B417B634FF000024FF00003D7E90CAB39
:104B18005946CB00514643EA51735146CA001046E4
:104B28001946034642469B18C7F8B0304B460A461A
:104B380042EB0303C7F8B430D7F8F4305B680022BF
:104B4800C7F8A830C7F8AC20D7E92A120B46DB18FB
:104B5800BB62134642EB0303FB62D7E90A23D7E99A
:104B68002C01FBF72DFB02460B460D4BA3FB021352
:104B78005B09642101FB03F3D31ADB003233084AD3
:104B8800A2FB03235B0903F00702D7F8F4301B6884
:104B980022449A6005E100BF001001400014014062
:104BA8001F85EB51D7F8FC300022C7F8A030C7F8B2
:104BB800A420D7E9288942464B46911839625B41BF
:104BC8007B62D7E9082341465418494643EB01055F
:104BD8004FF000024FF00003EB0043EA5473E20089
:104BE80014461D464346E318C7F898304B4645EB34
:104BF8000303C7F89C30D7F8F4305B680022C7F885
:104C08009030C7F894204FF000024FF00003D7E926
:104C1800244529468B00214643EA917321468A00A0
:104C2800D7E92601FBF7CCFA02460B46604BA3FBFB
:104C380002235B091C01D7F8FC300022C7F8883032
:104C4800C7F88C20D7E9228942464B469118B961AA
:104C58005B41FB61D7E90623414651183961494652
:104C68004B417B614FF000024FF00003D7E904ABE2
:104C78005946CB00514643EA51735146CA00104683
:104C88001946034642469B18C7F880304B460A46E9
:104C980042EB0303C7F88430D7F8F4305B6800228E
:104CA800BB67FA674FF000024FF00003D7E91E898F
:104CB80049468B00414643EA917341468A00D7E949
:104CC8002001FBF77DFA02460B46394BA3FB021382
:104CD8005B09642101FB03F3D31A1B013233344A05
:104CE800A2FB03235B0903F0F0031C44D7F8FC3054
:104CF80000223B677A67D7E91C8942464B469118E0
:104D0800B9605B41FB60D7E902234146511839601D
:104D180049464B417B604FF000024FF00003D7E952
:104D280000AB5946CB00514643EA51735146CA007D
:104D380010461946034642469B18BB664B460A4630
:104D480042EB0303FB66D7F8F4305B6800223B664E
:104D58007A664FF000024FF00003D7E918894946F8
:104D68008B00414643EA917341468A00D7E91A010C
:104D7800FBF726FA02460B460D4BA3FB02135B0911
:104D8800642101FB03F3D31A1B013233084AA2FB47
:104D980003235B0903F00F02D7F8F4301B682244A1
:104DA8009A6000BF07F58077BD46BDE8B08F00BFA9
:104DB8001F85EB5170B50D4D0D4C641BA4100026DA
:104DC800A64209D10B4D0C4C00F020F8641BA4102E
:104DD8000026A64205D170BD55F8043B9847013618
:104DE800EEE755F8043B98470136F2E7544E0008C1
:104DF800544E0008544E0008584E0008024403461A
:104E0800934200D1704703F8011BF9E7F8B500BFDA
:104E1800F8BC08BC9E467047F8B500BFF8BC08BC93
:044E28009E467047EB
:104E2C00000000000000000001020304060708094E
:104E3C000000000001020304000610160006101604
:084E4C00ACB3FF7F0100000080
:044E5400AD010008A4
:044E580089010008C4
:104E5C0000003442000080410000000000409C45EE
:104E6C000000FA4300000040A69B443B00000000F9
:104E7C0000409C450000000000000040A69B443B05
:104E8C000000000000409C450000000000000040B5
:104E9C00A69B443B0000000000409C450000000025
:104EAC0000000040A69B443B0000000000409C45D5
:104EBC00000000000000FA430000D0400000000099
:104ECC000000FA440000FA430000FA430000D0400E
:104EDC00000000000000FA440000FA43000000400B
:104EEC00295C8F3D000000000000FA430000FA43EB
:104EFC006F12033B00000000000000000000A04007
:104F0C000000000000008C42000010420000000075
:104F1C0000409C450000FA430000803F0000803FA9
:104F2C000000803F000096430000FA430000803FE1
:104F3C000000803F0000803F000096430000FA43D1
:104F4C000000803F0000803F0000803F000096433F
:104F5C000000FA430000003E00000000CDCC4C3DA8
:104F6C000000C84200401C460000964200000000B1
:104F7C00000000000000C842000000000000803F5C
:104F8C000000803F0000803F000096430000FA4381
:0C4F9C000024F4001000000001000000E0
:040000050800176573
:00000001FF
